{
  "contractName": "basicapp",
  "abi": [
    {
      "constant": true,
      "inputs": [],
      "name": "count",
      "outputs": [
        {
          "name": "",
          "type": "uint256"
        }
      ],
      "payable": false,
      "stateMutability": "view",
      "type": "function",
      "signature": "0x06661abd"
    },
    {
      "constant": true,
      "inputs": [
        {
          "name": "",
          "type": "uint256"
        }
      ],
      "name": "temps",
      "outputs": [
        {
          "name": "id",
          "type": "uint256"
        },
        {
          "name": "content",
          "type": "string"
        }
      ],
      "payable": false,
      "stateMutability": "view",
      "type": "function",
      "signature": "0x718c49d5"
    },
    {
      "inputs": [],
      "payable": false,
      "stateMutability": "nonpayable",
      "type": "constructor",
      "signature": "constructor"
    },
    {
      "constant": false,
      "inputs": [
        {
          "name": "_content",
          "type": "string"
        }
      ],
      "name": "addTemp",
      "outputs": [],
      "payable": false,
      "stateMutability": "nonpayable",
      "type": "function",
      "signature": "0xfaa9efa1"
    }
  ],
  "bytecode": "0x60806040526000805534801561001457600080fd5b5060408051808201909152601181527f46697273742074656d7065726174757265000000000000000000000000000000602082015261005b90640100000000610060810204565b610147565b600080546001908101808355604080518082018252828152602080820187815293865284815291909420845181559151805192936100a6939085019291909101906100ac565b50505050565b828054600181600116156101000203166002900490600052602060002090601f016020900481019282601f106100ed57805160ff191683800117855561011a565b8280016001018555821561011a579182015b8281111561011a5782518255916020019190600101906100ff565b5061012692915061012a565b5090565b61014491905b808211156101265760008155600101610130565b90565b61039f806101566000396000f3fe6080604052600436106100565763ffffffff7c010000000000000000000000000000000000000000000000000000000060003504166306661abd811461005b578063718c49d514610082578063faa9efa11461012b575b600080fd5b34801561006757600080fd5b506100706101e0565b60408051918252519081900360200190f35b34801561008e57600080fd5b506100ac600480360360208110156100a557600080fd5b50356101e6565b6040518083815260200180602001828103825283818151815260200191508051906020019080838360005b838110156100ef5781810151838201526020016100d7565b50505050905090810190601f16801561011c5780820380516001836020036101000a031916815260200191505b50935050505060405180910390f35b34801561013757600080fd5b506101de6004803603602081101561014e57600080fd5b81019060208101813564010000000081111561016957600080fd5b82018360208201111561017b57600080fd5b8035906020019184600183028401116401000000008311171561019d57600080fd5b91908080601f01602080910402602001604051908101604052809392919081815260200183838082843760009201919091525092955061028c945050505050565b005b60005481565b600160208181526000928352604092839020805481840180548651600296821615610100026000190190911695909504601f810185900485028601850190965285855290949193929091908301828280156102825780601f1061025757610100808354040283529160200191610282565b820191906000526020600020905b81548152906001019060200180831161026557829003601f168201915b5050505050905082565b600080546001908101808355604080518082018252828152602080820187815293865284815291909420845181559151805192936102d2939085019291909101906102d8565b50505050565b828054600181600116156101000203166002900490600052602060002090601f016020900481019282601f1061031957805160ff1916838001178555610346565b82800160010185558215610346579182015b8281111561034657825182559160200191906001019061032b565b50610352929150610356565b5090565b61037091905b80821115610352576000815560010161035c565b9056fea165627a7a72305820d72b621025bff4cf6a6841e28cf30bb5b80334066c9b3249ff78c2bf1f935aae0029",
  "source": "pragma solidity ^0.5.0;\n\ncontract basicapp{\n    uint public count = 0;\n\n    struct temperature {\n        uint id;\n        string content;\n    }\n\n    mapping(uint => temperature) public temps;\n\n    constructor() public {\n        addTemp(\"First temperature\");\n    }\n\n    function addTemp(string memory _content) public {\n        count++;\n        temps[count] = temperature(count, _content);\n    }\n}\n",
  "sourcePath": "/home/hotshot/Desktop/app-1/contracts/basicapp.sol",
  "compiler": {
    "name": "solc",
    "version": "0.5.0+commit.1d4f565a.Emscripten.clang"
  },
  "schemaVersion": "3.0.1",
  "updatedAt": "2019-08-15T16:48:59.051Z",
  "devdoc": {
    "methods": {}
  },
  "userdoc": {
    "methods": {}
  }
}